:0300000002058E68
:0C058E00787FE4F6D8FD75812B0205D5BE
:10078A00323020202D20202D202020202020202023
:10079A000020203A20203A2020202020202020203B
:1007AA00200020202053746F7020576174636820E2
:1007BA00200020203A20203A20202E20202020200D
:1007CA002000416C61726D20436C6F636B2053652E
:1007DA00742000202020203A2020202020202020C1
:0B07EA00202000204F4E004F4646002C
:1009F8000123000128FF02260000012A0001240625
:0F0A080001250001290002210000012B00C1007F
:100B4B0030B102C322120BB230B102C32230B1FD5D
:020B5B00D322A3
:100B5D0030B002C322120BB230B002C32230B0FD4E
:020B6D00D32291
:100B6F0030B202C322120BB230B202C32230B2FD36
:020B7F00D3227F
:100B810030B302C322120BB230B302C32230B3FD21
:020B9100D3226D
:100A48008E0F8F10851082850F83E4936017051031
:100A5800E510AE0F7002050F14F5828E83E493FF44
:060A6800120BCB80DF221F
:0C09CD00AB0FAA10A9111203B4FDAF1368
:1009D9008D15120BBFE51575F00A842430FF120B33
:0F09E900CBE51575F00A84E5F02430FF020BCB47
:1006A6008B0F8A1089118D12AF14120BBF7F0F1298
:1006B6000BBF120B6F5026AB0FAA10A9111203B471
:1006C600C39512500774011203CD8004E41203EFA0
:1006D6001209CDAF14120BBF7F0F120BBF120B8185
:1006E6005027AB0FAA10A9111203B4D394004007E8
:1006F60074FF1203CD8005E5121203EF1209CDAF88
:1007060014120BBF7F0F120BBF120B4B50A47F0CA2
:04071600120BBF22E1
:10071A00120BD7120AF41209A07F3F120A94120B85
:10072A00E27FC112089A8F24E524D39417400375F7
:10073A0024067FC312089A8F25E525D3943B4003EC
:10074A00E4F5257FC512089A8F29E529D39401403B
:10075A0003E4F529120003052AE52AC39405400695
:10076A00E4F52A12084DE5236528600612092D854D
:10077A00232812001912001A1207F512026180D4F6
:100B2F008F1DE51D75F00A842430FF120BCBE51DD8
:0C0B3F0075F00A84E5F02430FF020BCBB7
:10061A00EF14B4070040030206A590063275F003F2
:10062A00A4C58325F0C58373020647020650020655
:10063A005E02066C02067A0206880206967F53124A
:10064A000BCB7F7580077F4D120BCB7F6F120BCBC5
:10065A007F6E80447F54120BCB7F75120BCB7F6564
:10066A0080367F57120BCB7F65120BCB7F648028B5
:10067A007F54120BCB7F68120BCB7F75801A7F4693
:10068A00120BCB7F72120BCB7F69800C7F53120B3C
:0C069A00CB7F61120BCB7F74120BCB22C4
:10092D007F0C120BBFE52370177F80120BBF7E0764
:10093D007F8A120A487FC0120BBF7E077F9B801AE9
:10094D00E523B402187F80120BBF7E077FAC120A1D
:0E095D00487FC0120BBF7E077FBC120A4822E3
:10026100E5236003020365E51CC4540F75F00AA47D
:10027100FFE51C540F2FFD7F821209D9E51AC454E2
:100281000F75F00AA4FFE51A540F2FFD7F8512099F
:10029100D9E519C4540F75F00AA4FFE519540F2FBD
:1002A100FD7F881209D97F8C120BBFE51B5407FF14
:1002B10012061AE518C4540F75F00AA4FFE5185484
:1002C1000F2FFD7FC01209D9E517C4540F75F00A2D
:1002D100A4FFE517540F2FFD7FC31209D9E516C4FA
:1002E100540F75F00AA4FFE516540F2FFD7FC612B7
:1002F10009D97FC9120BBF852608852709C3E508DF
:100301006480948050127F2D120BCBC3E49509F5C4
:1003110009E49508F50880057F20120BCBAE08AFE4
:10032100097C007D64120468EF2430FF120BCBAE10
:1003310008AF097C007D0A1204687C007D0A120462
:1003410068ED2430FF120BCB7F2E120BCBAE08AF22
:10035100097C007D0A120468ED2430FF120BCB7F6B
:1003610043020BCBE52364027048AE21AF227C0E21
:100371007D10120413AD077FC01209D9AE21AF223F
:100381007C0E7D101204137E007F3CCFCDCFCECCEE
:10039100CE120413AD077FC31209D9AE21AF227C5F
:1003A100007D3C1204137FC61209D9AD2B7FC912FF
:0203B10009D968
:0103B3002227
:1007F500E5237018120B4B500612001E7528FF12C8
:100805000B5D5043752302C200E4802CE52364028E
:100815007035120B6F5006B200A200928E120B813A
:10082500500A200007E4F521F522F52B120B5D5047
:1008350016E4F523C28EC200F521F522F52B120927
:080845002D8523281202612217
:10001E00E51CC4540F75F00AA4FFE51C540F2FF510
:10002E0008E51AC4540F75F00AA4FFE51A540F2FF1
:10003E00F509E519C4540F75F00AA4FFE519540F1C
:10004E002FF50AE51B5407F50BE518C4540F75F090
:10005E000AA4FFE518540F2FF50CE517C4540F75BD
:10006E00F00AA4FFE517540F2FF50DE516C4540F33
:10007E0075F00AA4FFE516540F2FF50E7F80120BB4
:10008E00BF7E077F8A120A487FC0120BBF7E077F92
:10009E009B120A48AD087F821209D9AD097F8512DD
:1000AE0009D9AD0A7F881209D97F8C120BBFAF0B0D
:1000BE0012061AAD0C7FC01209D9AD0D7FC31209FD
:1000CE00D9AD0E7FC61209D97B007A007908751357
:1000DE00827514827D631206A67B007A00790975FB
:1000EE0013857514857D0C1206A67B007A00790A9D
:1000FE007513887514887D1F1206A67B007A007909
:10010E000C7513C07514C07D171206A67B007A00FD
:10011E00790D7513C37514C37D3B1206A67B007A49
:10012E0000790E7513C67514C67D3B1206A67F8C1C
:10013E00120BBF7F0F120BBF120B6F5022E50BC3BA
:10014E0094075004050B8003750B017F8C120BBFB7
:10015E00AF0B12061A7F8C120BBF7F0F120BBF1242
:10016E000B815021E50B94014004150B8003750B98
:10017E00077F8C120BBFAF0B12061A7F8C120BBFB0
:10018E007F0F120BBF120B4B50AEE50875F00A84B1
:10019E00C454F0FFE50875F00A84E5F04FF51CE550
:1001AE000975F00A84C454F0FFE50975F00A84E578
:1001BE00F04FF51AE50A75F00A84C454F0FFE50A0B
:1001CE0075F00A84E5F04FF519850B1BE50C75F0FB
:1001DE000A84C454F0FFE50C75F00A84E5F04FF57F
:1001EE0018E50D75F00A84C454F0FFE50D75F00A9C
:1001FE0084E5F04FF517E50E75F00A84C454F0FF50
:10020E00E50E75F00A84E5F04FF516E4FD7F8E12CB
:10021E00096BAD167F8012096BAD177F8212096BC9
:10022E00AD187F8412096BAD197F8612096BAD1A5A
:10023E007F8812096BAD1B7F8A12096BAD1C7F8CF8
:10024E0012096B7D807F8E12096B7F0C120BBF75AE
:02025E0028FF77
:01026000227B
:1004BD007F80120BBF7E077FCC120A487FC0120BC4
:1004CD00BF7E077FDD120A48AD247FC31209D9AD67
:1004DD00257FC61209D97FCA120BBFE52960067E9A
:1004ED00077FED80047E077FF1120A487B007A00BA
:1004FD0079247513C37514C47D171206A67B007A73
:10050D000079257513C67514C77D3B1206A67FCCE1
:10051D00120BBF7F0F120BBF120B6F5019752901F4
:10052D007FCA120BBF7E077FED120A487FCC120BDC
:10053D00BF7F0F120BBF120B815019E4F5297FCA33
:10054D00120BBF7E077FF1120A487FCC120BBF7FC3
:10055D000F120BBF120B4B50BF7F0C120BBFE4FDE4
:10056D007F8E12096BAD247FC012096BAD257FC242
:10057D0012096BAD297FC412096B7D807F8E020934
:01058D006B02
:0B0BD70053890F438910D2ABD2AF222C
:03001B00020A6E68
:100A6E00C0E0C0D0758DD8758BF0300014052BE525
:100A7E002BC39464400B752B000522E522700205F2
:060A8E0021D0D0D0E032BF
:10084D00E4F50AFB7A007908120B12503FE50830E7
:10085D00E714E509F4FFE508F4FEEF2401F509E4DA
:10086D003EF508750A01AE08AF097C007D0A120439
:10087D00017D101204688E268F27E50A600BC3E4F4
:0C088D009527F527E49526F526120BE2CE
:01089900223C
:0100190022C4
:01001A0022C3
:100AB500E4FDFCC3ED9FEC9E5015E4FBFA0BBB0077
:0F0AC500010AEB64704A70F50DBD00010C80E46E
:010AD40022FF
:0C0BB2007F017E267D82DDFEDEFADFF68C
:010BBE002214
:1008E400C2A58B807F017E00120914D2A77F017EEE
:1008F40000120914C2A77F017E00120914EBC4542C
:10090400F0F5807F017E00120914D2A77F017E00DA
:10091400D3EF9400EE9400400F7DC77C01DCFEDD34
:08092400FAEF1F70EB1E80E8E2
:01092C0022A8
:0C0BBF00AB07C2A7C2A61208E4C2A7221E
:0C0BCB00AB07C2A7D2A61208E4C2A72202
:100AF4007F32120BBF7F28120BBF7F0C120BBF7FFC
:0E0B040006120BBF7F01120BBF7F80020BBFDA
:0E0BA40081838587898B8D80828486888A8CE8
:090A170007160000120101021390
:10096B00C2B500C2B600D2B500E4FEEF1392B4EFED
:10097B00C313FFD2B600C2B6000EBE08EEE4FEED06
:10098B001392B4EDC313FDD2B600C2B6000EBE086F
:04099B00EEC2B500F3
:01099F002235
:10089A00C2B500C2B600D2B500E4FDEF1392B4EFC0
:1008AA00C313FFD2B600C2B6000DBD08EE00E4FDC8
:1008BA00A2B4E433FFC43333335480FCEEC3134C85
:1008CA00FED2B600C2B6000DBD08E5C2B500D2B66A
:0908DA0000C2B400D2B400AF0664
:0108E30022F2
:1009A0007F8112089AEF30E723E4FD7F8E12096BF6
:1009B000E4FCEC900BAB93FF74162CF8E6FD1209E7
:0C09C0006B0CBC07ED7D807F8E12096B74
:0109CC002208
:10000300E4FBEB900BA493FF12089A74162BF8A64B
:05001300070BBB07ED27
:0100180022C5
:100B9300C2B7E4FF0FBFC8FCD2B7E4FF0FBF64FCCA
:010BA300222F
:050A2100120B937FCCD5
:100A2600E4FEC2B700EF30E004D2B78002C2B7E4FA
:100A3600FD0DBD1EFCD2B70000EFC313FF0EBE08AE
:010A4600E1CE
:010A4700228C
:100AD500E4FFFEEFC313FFC2B700D2B7000030B783
:0E0AE50003430780E4FD0DBD14FC0EBE08E5C2
:010AF30022E0
:080BE200120A217F44020A26D9
:100A9400AC07120A217F4E120A26E4FF120A26E44A
:100AA400FF120A26AF04120A26120A217F48020AFC
:010AB400261B
:100B1200120A217FBE120A26120AD5AC07120AD582
:0C0B2200EFFFAD04EDCF8FF012049ED366
:010B2E0022A4
:10059A0002071AE493A3F8E493A34003F68001F256
:1005AA0008DFF48029E493A3F85407240CC8C33362
:1005BA00C4540F4420C8834004F456800146F6DF31
:1005CA00E4800B01020408102040809009F8E47EC0
:1005DA00019360BCA3FF543F30E509541FFEE49326
:1005EA00A360010ECF54C025E060A840B8E493A3ED
:1005FA00FAE493A3F8E493A3C8C582C8CAC583CA18
:10060A00F0A3C8C582C8CAC583CADFE9DEE780BECF
:010A200000D5
:1003B400BB010689828A83E0225002E722BBFE0247
:0903C400E32289828A83E493227A
:1003CD00BB010989828A83F8E028F022500327F7C0
:1003DD0022BBFE05F8E328F3228A838982F8E49391
:0203ED002822C4
:1003EF00BB010689828A83F0225002F722BBFE01ED
:0203FF00F322E7
:10040100EF8DF0A4A8F0CF8CF0A428CE8DF0A42E0F
:02041100FE22C9
:10041300BC000BBE0029EF8DF084FFADF022E4CCCD
:10042300F875F008EF2FFFEE33FEEC33FCEE9DEC96
:10043300984005FCEE9DFE0FD5F0E9E4CEFD22EDDC
:10044300F8F5F0EE8420D21CFEADF075F008EF2F26
:10045300FFED33FD4007985006D5F0F222C398FD17
:050463000FD5F0EA22B4
:10046800C2D5EC30E709B2D5E4C39DFDE49CFCEEAF
:1004780030E715B2D5E4C39FFFE49EFE120413C310
:10048800E49DFDE49CFC800312041330D507C3E40B
:060498009FFFE49EFE221E
:10049E00BB010A89828A83F0E5F0A3F0225006F7A9
:0F04AE0009A7F01922BBFE06F3E5F009F31922A6
:00000001FF
