:030000000207965E
:0C079600787FE4F6D8FD7581200207DDB5
:100ABE00010A00010FFF020D0000011200010B06DA
:100ACE00010C0001110001100001130002080000CA
:050ADE00011400C1003D
:10070400120C96120BEDC2A0120C71120C71120C89
:1007140071120C71120C71120C71120C71120C7199
:10072400120C71120C71D2A0120AED7F3F120B8DC4
:10073400120CA17FC11209F68F0BE50BD39417405D
:1007440003750B067FC31209F68F0CE50CD3943B9B
:100754004003E4F50C7FC51209F68F11E511D3941B
:10076400014003E4F511120C280512E512C39405A7
:100774004006E4F5121209A9E50A650F60061204A1
:10078400F2850A0F1209341200031208AE12032371
:0207940080D40F
:040BAE00540F2FFFB2
:100BB2008F1FE51F75F00A842430FF120C8AE51F8F
:0C0BC20075F00A84E5F02430FF020C8A74
:10082200EF14B4070040030208AD90083A75F003D4
:10083200A4C58325F0C5837302084F020858020835
:100842006602087402088202089002089E7F531210
:100852000C8A7F7580077F4D120C8A7F6F120C8A7B
:100862007F6E80447F54120C8A7F75120C8A7F65DA
:1008720080367F57120C8A7F65120C8A7F6480282B
:100882007F54120C8A7F68120C8A7F75801A7F4609
:10089200120C8A7F72120C8A7F69800C7F53120CB1
:0C08A2008A7F61120C8A7F74120C8A227B
:1004F200E50A600302058A7F0C120C7E7F80120CD3
:100502007E7F32120C8A7F30120C8A7F20120C8A74
:100512007F20120C8A7F2D120C8A7F20120C8A7F78
:1005220020120C8A7F2D120C8A7F20120C8A7F20C7
:10053200120C8A7F20120C8A7F20120C8A7F2012D2
:100542000C8A7F20120C8A7F20120C8A7F20120CC8
:100552008A7FC0120C7E7F20120C8A7F20120C8AA6
:100562007F3A120C8A7F20120C8A7F20120C8A7F1B
:100572003A120C8A7F20120C8A7F20120C8A7F206A
:10058200120C8A7F2002061CE50A6402600302063E
:10059200477F0C120C7E7F80120C7E7F20120C8A09
:1005A2007F20120C8A7F20120C8A7F53120C8A7FC2
:1005B20074120C8A7F6F120C8A7F70120C8A7F2051
:1005C200120C8A7F57120C8A7F61120C8A7F741276
:1005D2000C8A7F63120C8A7F68120C8A7F20120CAD
:1005E2008A7F20120C8A7F20120C8A7FC0120C7E16
:1005F2007F20120C8A7F20120C8A7F3A120C8A7F8B
:1006020020120C8A7F20120C8A7F3A120C8A7F20D9
:10061200120C8A7F20120C8A7F2E120C8A7F2012E3
:100622000C8A7F20120C8A7F20120C8A7F20120CE7
:100632008A7F20120C8A7F20120C8A7F20120C8A59
:060642007F20120C8A2249
:10032300E50A60030204217F82120C7EE51BC4549C
:100333000F75F00AA4FFE51B120BAE7F85120C7E2E
:10034300E519C4540F75F00AA4FFE519120BAE7F2B
:1003530088120C7EE518C4540F75F00AA4FFE51843
:10036300120BAE7F8C120C7EE51A5407FF12082283
:100373007FC0120C7EE517C4540F75F00AA4FFE585
:1003830017120BAE7FC3120C7EE516C4540F75F023
:100393000AA4FFE516120BAE7FC6120C7EE515C448
:1003A300540F75F00AA4FFE515120BAE7FC9120CAA
:1003B3007E850D1D850E1EC3E51D6480948050123D
:1003C3007F2D120C8AC3E4951EF51EE4951DF51DC1
:1003D30080057F20120C8AAE1DAF1E7C007D641247
:1003E30006AFEF2430FF120C8AAE1DAF1E7C007DDA
:1003F3000A1206AF7C007D0A1206AFED2430FF120D
:100403000C8A7F2E120C8AAE1DAF1E7C007D0A1251
:1004130006AFED2430FF120C8A7F430204EEE50A97
:10042300640260030204F1AE08AF097C0E7D101272
:10043300065A8F1C7FC0120C7EE51C75F00A8424BB
:1004430030FF120C8AE51C75F00A84E5F02430FFB6
:10045300120C8A7FC3120C7EAE08AF097C0E7D108E
:1004630012065A7E007F3CCFCDCFCECCCE12065A99
:100473008F1CE51C75F00A842430FF120C8AE51CDE
:1004830075F00A84E5F02430FF120C8A7FC6120C43
:100493007EAE08AF097C007D3C12065A7E007F0ABF
:1004A300CFCDCFCECCCE12065AEF2430FF120C8A1A
:1004B300AE08AF097C007D3C12065A7E007F0ACF4E
:1004C300CDCFCECCCE12065AED2430FF120C8A7F4C
:1004D300C9120C7EE51475F00A842430FF120C8ACD
:0E04E300E51475F00A84E5F02430FF120C8A4F
:0104F10022E8
:1008AE00E50A703120B112120C7120B10C30B1FD7D
:1008BE0012001E750FFF120C3E20B069120C712033
:1008CE00B06330B0FD120CA9750A02C200E4F5083F
:1008DE00F509F51422E50A6402704A20B212120CD0
:1008EE007120B20C30B2FD120CA9B200A200928E91
:1008FE0020B316120C7120B31030B3FD120CA920C8
:10090E000007E4F508F509F51420B019120C712052
:10091E00B01330B0FDE4F50AC28EC200F508F50939
:06092E00F514120C3E223C
:10001E007F80120C7E7F41120C8A7F6C120C8A7FBD
:10002E0061120C8A7F72120C8A7F6D120C8A7F20ED
:10003E00120C8A7F43120C8A7F6C120C8A7F6F120D
:10004E000C8A7F63120C8A7F6B120C8A7F20120C33
:10005E008A7F53120C8A7F65120C8A7F74120C8A67
:10006E007F20120C8A7FC0120C7E7F20120C8A7F9A
:10007E0020120C8A7F20120C8A7F20120C8A7F207D
:10008E00120C8A7F3A120C8A7F20120C8A7F201261
:10009E000C8A7F20120C8A7F20120C8A7F20120C71
:1000AE008A7F20120C8A7F20120C8A7F20120C8AE3
:1000BE007F20120C8A7F20120C8A7FC3120C7EE5E1
:1000CE000B75F00A842430FF120C8AE50B75F00ACA
:1000DE0084E5F02430FF120C8A7FC6120C7EE50CEC
:1000EE0075F00A842430FF120C8AE50C75F00A8430
:1000FE00E5F02430FF120C8A7FCA120C7EE51160E7
:10010E000E7F20120C8A7F4F120C8A7F4E800C7F3E
:10011E004F120C8A7F46120C8A7F46120C8A7FC4BD
:10012E00120C7E7F0F120C7E20B243120C7120B285
:10013E003D30B2FD120CA9E50BC394175004050B0C
:10014E008003E4F50B7FC3120C7EE50B75F00A8479
:10015E002430FF120C8AE50B75F00A84E5F024308A
:10016E00FF120C8A7FC4120C7E7F0F120C7E20B3FE
:10017E0043120C7120B33D30B3FD120CA9E50BD325
:10018E0094004004150B8003750B177FC3120C7E71
:10019E00E50B75F00A842430FF120C8AE50B75F01E
:1001AE000A84E5F02430FF120C8A7FC4120C7E7F85
:1001BE000F120C7E30B103020136120C7130B103F6
:1001CE0002013630B1FD120CA97FC7120C7E7F0FD3
:1001DE00120C7E20B243120C7120B23D30B2FD12D1
:1001EE000CA9E50CC3943B5004050C8003E4F50CFC
:1001FE007FC6120C7EE50C75F00A842430FF120CBB
:10020E008AE50C75F00A84E5F02430FF120C8A7F23
:10021E00C7120C7E7F0F120C7E20B343120C71207E
:10022E00B33D30B3FD120CA9E50CD3940040041578
:10023E000C8003750C3B7FC6120C7EE50C75F00A24
:10024E00842430FF120C8AE50C75F00A84E5F02444
:10025E0030FF120C8A7FC7120C7E7F0F120C7E307D
:10026E00B1030201E1120C7130B1030201E130B1B0
:10027E00FD120CA97FCC120C7E7F0F120C7E20B2C9
:10028E002D120C7120B22730B2FD120CA97511017E
:10029E007FCA120C7E7F20120C8A7F4F120C8A7F2F
:1002AE004E120C8A7FCC120C7E7F0F120C7E20B366
:1002BE002D120C7120B32730B3FD120CA9E4F511E9
:1002CE007FCA120C7E7F4F120C8A7F46120C8A7FD9
:1002DE0046120C8A7FCC120C7E7F0F120C7E20B140
:1002EE009D120C7120B19730B1FD120CA97F0C122A
:1002FE000C7EE4FD7F8E120A89AD0B7FC0120A8937
:10030E00AD0C7FC2120A89AD117FC4120A897D809D
:05031E007F8E020A8938
:10093400E517C4540F75F00AA4FFE517540F2FFFF1
:10094400E516C4540F75F00AA4FEE516540F2EFEE6
:10095400E515C4540F75F00AA4FDE515540F2DFDDB
:10096400E5106011ED700E0513E513D394324005C4
:10097400E4F513F510E511601AEFB50B16EEB50C9E
:1009840012EDC39400400CED94035007E51070037E
:10099400751001BD3B03E4F51030B10320B005E44C
:0409A400F510D2A0D8
:0109A800222C
:10000300E5106012C2A07F327E00120B6DD2A07F7A
:07001300327E00120B6D228A
:0B0C960053890F438910D2ABD2AF226C
:03001B00020B4194
:100B4100C0E0C0D0758DD8758BF03000140514E568
:100B510014C39464400B7514000509E5097002057E
:060B610008D0D0D0E03204
:1009A900E4F51EFB7A00791C120C0B503FE51C3054
:1009B900E714E51DF4FFE51CF4FEEF2401F51DE441
:1009C9003EF51C751E01AE1CAF1D7C007D0A12068A
:1009D900487D101206AF8E0D8F0EE51E600BC3E425
:0C09E900950EF50EE4950DF50D120CA115
:0109F50022DF
:060B6700C2A07F287E0001
:100B6D00E4FDFCC3ED9FEC9E5015E4FBFA0BBB00BE
:0F0B7D00010AEB64704A70F50DBD00010C80E4B5
:010B8C002246
:060CA900120B67D2A0222D
:100C3E00120B67D2A07F1E120B6DC2A07F28120B63
:040C4E006DD2A022A1
:0C0C71007F017E267D82DDFEDEFADFF6CC
:010C7D002254
:100A4000C2A58B807F017E00120A70D2A77F017E33
:100A500000120A70C2A77F017E00120A70EBC45414
:100A6000F0F5807F017E00120A70D2A77F017E0020
:100A7000D3EF9400EE9400400F7DC77C01DCFEDDD7
:080A8000FAEF1F70EB1E80E885
:010A8800224B
:0C0C7E00AB07C2A7C2A6120A40C2A72200
:0C0C8A00AB07C2A7D2A6120A40C2A722E4
:100BED007F32120C7E7F28120C7E7F0C120C7E7FC2
:0E0BFD0006120C7E7F01120C7E7F80020C7EA1
:0E0C630081838587898B8D80828486888A8C28
:090AE300071500001201010213C5
:100A8900C29200C29000D29200E4FEEF139291EF5D
:100A9900C313FFD29000C290000EBE08EEE4FEED33
:100AA900139291EDC313FDD29000C290000EBE08BF
:040AB900EEC29200F7
:010ABD002216
:1009F600C29200C29000D29200E4FDEF139291EFF2
:100A0600C313FFD29000C290000DBD08EE00E4FDB6
:100A1600A291E433FFC43333335480FCEEC3134C4A
:100A2600FED29000C290000DBD08E5C29200D290A1
:090A360000C29100D29100AF064C
:010A3F002294
:100AED007F811209F6EF30E723E4FD7F8E120A892C
:100AFD00E4FCEC900C6A93FF74152CF8E6FD120AD9
:0C0B0D00890CBC07ED7D807F8E120A89E8
:010B190022B9
:100C2800E4FBEB900C6393FF1209F674152BF8A6FE
:050C3800070BBB07EDF6
:010C3D002294
:100C5200C2B7E4FF0FBFC8FCD2B7E4FF0FBF64FC0A
:010C6200226F
:050B1A00120C527FCC1B
:100B1F00E4FEC2B700EF30E004D2B78002C2B7E400
:100B2F00FD0DBD1EFCD2B70000EFC313FF0EBE08B4
:010B3F00E1D4
:010B40002292
:100BCE00E4FFFEEFC313FFC2B700D2B7000030B789
:0E0BDE0003430780E4FD0DBD14FC0EBE08E5C8
:010BEC0022E6
:080CA100120B1A7F44020B1F25
:100B8D00AC07120B1A7F4E120B1FE4FF120B1FE462
:100B9D00FF120B1FAF04120B1F120B1A7F48020B13
:010BAD001F28
:100C0B00120B1A7FBE120B1F120BCEAC07120BCEA0
:0C0C1B00EFFFAD04EDCF8FF01206E5D323
:010C270022AA
:1007A200020704E493A3F8E493A34003F68001F262
:1007B20008DFF48029E493A3F85407240CC8C33358
:1007C200C4540F4420C8834004F456800146F6DF27
:1007D200E4800B0102040810204080900ABEE47EEF
:1007E200019360BCA3FF543F30E509541FFEE4931C
:1007F200A360010ECF54C025E060A840B8E493A3E3
:10080200FAE493A3F8E493A3C8C582C8CAC583CA0D
:10081200F0A3C8C582C8CAC583CADFE9DEE780BEC5
:010AEC000009
:10064800EF8DF0A4A8F0CF8CF0A428CE8DF0A42EC6
:02065800FE2280
:10065A00BC000BBE0029EF8DF084FFADF022E4CC84
:10066A00F875F008EF2FFFEE33FEEC33FCEE9DEC4D
:10067A00984005FCEE9DFE0FD5F0E9E4CEFD22ED93
:10068A00F8F5F0EE8420D21CFEADF075F008EF2FDD
:10069A00FFED33FD4007985006D5F0F222C398FDCE
:0506AA000FD5F0EA226B
:1006AF00C2D5EC30E709B2D5E4C39DFDE49CFCEE66
:1006BF0030E715B2D5E4C39FFFE49EFE12065AC37E
:1006CF00E49DFDE49CFC800312065A30D507C3E479
:0606DF009FFFE49EFE22D5
:1006E500BB010A89828A83F0E5F0A3F0225006F760
:0F06F50009A7F01922BBFE06F3E5F009F319225D
:00000001FF
