:030000000207965E
:0C079600787FE4F6D8FD7581240207DDB1
:100AF100010A00010FFF020D0000011200010B06A7
:100B0100010C000111000110000213000002080095
:060B110000011500C10007
:10070400120CB4120C21C2A0120C8F120C8F120CFA
:100714008F120C8F120C8F120C8F120C8F120C8FE5
:10072400120C8F120C8FD2A0120B217F3F120BC11F
:10073400120CBF7FC1120A298F0BE50BD39417400B
:1007440003750B067FC3120A298F0CE50CD3943B67
:100754004003E4F50C7FC5120A298F11E511D394E7
:10076400014003E4F5111200030512E512C39405D8
:100774004006E4F5121209DCE50A650F600612046E
:10078400F2850A0F12093412098D1208AE120323DE
:0207940080D40F
:040BE200540F2FFF7E
:100BE6008F24E52475F00A842430FF120CA8E5242E
:0C0BF60075F00A84E5F02430FF020CA822
:10082200EF14B4070040030208AD90083A75F003D4
:10083200A4C58325F0C5837302084F020858020835
:100842006602087402088202089002089E7F531210
:100852000CA87F7580077F4D120CA87F6F120CA821
:100862007F6E80447F54120CA87F75120CA87F659E
:1008720080367F57120CA87F65120CA87F648028EF
:100882007F54120CA87F68120CA87F75801A7F46CD
:10089200120CA87F72120CA87F69800C7F53120C75
:0C08A200A87F61120CA87F74120CA82221
:1004F200E50A600302058A7F0C120C9C7F80120CB5
:100502009C7F32120CA87F30120CA87F20120CA8FC
:100512007F20120CA87F2D120CA87F20120CA87F1E
:1005220020120CA87F2D120CA87F20120CA87F206D
:10053200120CA87F20120CA87F20120CA87F201278
:100542000CA87F20120CA87F20120CA87F20120C6E
:10055200A87FC0120C9C7F20120CA87F20120CA82E
:100562007F3A120CA87F20120CA87F20120CA87FC1
:100572003A120CA87F20120CA87F20120CA87F2010
:10058200120CA87F2002061CE50A64026003020620
:10059200477F0C120C9C7F80120C9C7F20120CA8AF
:1005A2007F20120CA87F20120CA87F53120CA87F68
:1005B20074120CA87F6F120CA87F70120CA87F20F7
:1005C200120CA87F57120CA87F61120CA87F74121C
:1005D2000CA87F63120CA87F68120CA87F20120C53
:1005E200A87F20120CA87F20120CA87FC0120C9C9E
:1005F2007F20120CA87F20120CA87F3A120CA87F31
:1006020020120CA87F20120CA87F3A120CA87F207F
:10061200120CA87F20120CA87F2E120CA87F201289
:100622000CA87F20120CA87F20120CA87F20120C8D
:10063200A87F20120CA87F20120CA87F20120CA8E1
:060642007F20120CA8222B
:10032300E50A60030204217F82120C9CE51CC4547D
:100333000F75F00AA4FFE51C120BE27F85120C9CDB
:10034300E51AC4540F75F00AA4FFE51A120BE27FF5
:1003530088120C9CE519C4540F75F00AA4FFE51923
:10036300120BE27F8C120C9CE51B5407FF12082230
:100373007FC0120C9CE518C4540F75F00AA4FFE566
:1003830018120BE27FC3120C9CE517C4540F75F0CF
:100393000AA4FFE517120BE27FC6120C9CE516C4F4
:1003A300540F75F00AA4FFE516120BE27FC9120C75
:1003B3009C850D22850E23C3E52264809480501210
:1003C3007F2D120CA8C3E49523F523E49522F5228F
:1003D30080057F20120CA8AE22AF237C007D64121F
:1003E30006AFEF2430FF120CA8AE22AF237C007DB2
:1003F3000A1206AF7C007D0A1206AFED2430FF120D
:100403000CA87F2E120CA8AE22AF237C007D0A120B
:1004130006AFED2430FF120CA87F430204EEE50A79
:10042300640260030204F1AE08AF097C0E7D101272
:10043300065A8F217FC0120C9CE52175F00A842493
:1004430030FF120CA8E52175F00A84E5F02430FF93
:10045300120CA87FC3120C9CAE08AF097C0E7D1052
:1004630012065A7E007F3CCFCDCFCECCCE12065A99
:100473008F21E52175F00A842430FF120CA8E521B1
:1004830075F00A84E5F02430FF120CA87FC6120C25
:100493009CAE08AF097C007D3C12065A7E007F0AA1
:1004A300CFCDCFCECCCE12065AEF2430FF120CA8FC
:1004B300AE08AF097C007D3C12065A7E007F0ACF4E
:1004C300CDCFCECCCE12065AED2430FF120CA87F2E
:1004D300C9120C9CE51575F00A842430FF120CA890
:0E04E300E51575F00A84E5F02430FF120CA830
:0104F10022E8
:1008AE00E50A703120B112120C8F20B10C30B1FD5F
:1008BE0012001E750FFF120C5C20B069120C8F20F7
:1008CE00B06330B0FD120CC7750A02C200E4F50821
:1008DE00F509F51522E50A6402704A20B212120CCF
:1008EE008F20B20C30B2FD120CC7B200A200928E55
:1008FE0020B316120C8F20B31030B3FD120CC7208C
:10090E000007E4F508F509F51520B019120C8F2033
:10091E00B01330B0FDE4F50AC28EC200F508F50939
:06092E00F515120C5C221D
:10001E007F80120C9C7F41120CA87F6C120CA87F63
:10002E0061120CA87F72120CA87F6D120CA87F2093
:10003E00120CA87F43120CA87F6C120CA87F6F12B3
:10004E000CA87F63120CA87F6B120CA87F20120CD9
:10005E00A87F53120CA87F65120CA87F74120CA8EF
:10006E007F20120CA87FC0120C9C7F20120CA87F40
:10007E0020120CA87F20120CA87F20120CA87F2023
:10008E00120CA87F3A120CA87F20120CA87F201207
:10009E000CA87F20120CA87F20120CA87F20120C17
:1000AE00A87F20120CA87F20120CA87F20120CA86B
:1000BE007F20120CA87F20120CA87FC3120C9CE587
:1000CE000B75F00A842430FF120CA8E50B75F00AAC
:1000DE0084E5F02430FF120CA87FC6120C9CE50CB0
:1000EE0075F00A842430FF120CA8E50C75F00A8412
:1000FE00E5F02430FF120CA87FCA120C9CE51160AB
:10010E000E7F20120CA87F4F120CA87F4E800C7F02
:10011E004F120CA87F46120CA87F46120CA87FC463
:10012E00120C9C7F0F120C9C20B243120C8F20B22B
:10013E003D30B2FD120CC7E50BC394175004050BEE
:10014E008003E4F50B7FC3120C9CE50B75F00A845B
:10015E002430FF120CA8E50B75F00A84E5F024306C
:10016E00FF120CA87FC4120C9C7F0F120C9C20B3A4
:10017E0043120C8F20B33D30B3FD120CC7E50BD3E9
:10018E0094004004150B8003750B177FC3120C9C53
:10019E00E50B75F00A842430FF120CA8E50B75F000
:1001AE000A84E5F02430FF120CA87FC4120C9C7F49
:1001BE000F120C9C30B103020136120C8F30B103BA
:1001CE0002013630B1FD120CC77FC7120C9C7F0F97
:1001DE00120C9C20B243120C8F20B23D30B2FD1295
:1001EE000CC7E50CC3943B5004050C8003E4F50CDE
:1001FE007FC6120C9CE50C75F00A842430FF120C9D
:10020E00A8E50C75F00A84E5F02430FF120CA87FE7
:10021E00C7120C9C7F0F120C9C20B343120C8F2024
:10022E00B33D30B3FD120CC7E50CD394004004155A
:10023E000C8003750C3B7FC6120C9CE50C75F00A06
:10024E00842430FF120CA8E50C75F00A84E5F02426
:10025E0030FF120CA87FC7120C9C7F0F120C9C3023
:10026E00B1030201E1120C8F30B1030201E130B192
:10027E00FD120CC77FCC120C9C7F0F120C9C20B26F
:10028E002D120C8F20B22730B2FD120CC775110142
:10029E007FCA120C9C7F20120CA87F4F120CA87FD5
:1002AE004E120CA87FCC120C9C7F0F120C9C20B30C
:1002BE002D120C8F20B32730B3FD120CC7E4F511AD
:1002CE007FCA120C9C7F4F120CA87F46120CA87F7F
:1002DE0046120CA87FCC120C9C7F0F120C9C20B1E6
:1002EE009D120C8F20B19730B1FD120CC77F0C12EE
:1002FE000C9CE4FD7F8E120ABCAD0B7FC0120ABCB3
:10030E00AD0C7FC2120ABCAD117FC4120ABC7D8037
:05031E007F8E020ABC05
:10093400E518C4540F75F00AA4FFE518540F2FFFEF
:10094400E517C4540F75F00AA4FEE517540F2EFEE4
:10095400E516C4540F75F00AA4FDE516540F2DFDD9
:10096400E50A701EE511601AE5107016EFB50B125A
:10097400EEB50C0EEDC394055008751001E4F513A3
:08098400F514BD3B03E4F5107E
:01098C002248
:10098D00E510604A30B10930B00630B20320B3151E
:10099D007F0A7E00120BA130B11C30B01930B21697
:1009AD0020B30280110514E51470020513D394329F
:1009BD00E51394004006E4F510D2A022C2A07F32C8
:0F09CD007E00120BA1D2A07F327E00120BA1225E
:0B0CB40053890F438910D2ABD2AF224E
:03001B00020B7560
:100B7500C0E0C0D0758DD8758BF03000140515E533
:100B850015C39464400B7515000509E50970020548
:060B950008D0D0D0E032D0
:1009DC00E4F523FB7A007921120C3F503FE52130DE
:1009EC00E714E522F4FFE521F4FEEF2401F522E4FF
:1009FC003EF521752301AE21AF227C007D0A120643
:100A0C00487D101206AF8E0D8F0EE523600BC3E4EC
:0C0A1C00950EF50EE4950DF50D120CBFC3
:010A280022AB
:060B9B00C2A07F287E00CD
:100BA100E4FDFCC3ED9FEC9E5015E4FBFA0BBB008A
:0F0BB100010AEB64704A70F50DBD00010C80E481
:010BC0002212
:060CC700120B9BD2A022DB
:100C5C00120B9BD2A07F1E120BA1C2A07F28120BDD
:040C6C00A1D2A0224F
:0C0C8F007F017E267D82DDFEDEFADFF6AE
:010C9B002236
:100A7300C2A58B807F017E00120AA3D2A77F017ECD
:100A830000120AA3C2A77F017E00120AA3EBC4547B
:100A9300F0F5807F017E00120AA3D2A77F017E00BA
:100AA300D3EF9400EE9400400F7DC77C01DCFEDDA4
:080AB300FAEF1F70EB1E80E852
:010ABB002218
:0C0C9C00AB07C2A7C2A6120A73C2A722AF
:0C0CA800AB07C2A7D2A6120A73C2A72293
:100C21007F32120C9C7F28120C9C7F0C120C9C7F33
:0E0C310006120C9C7F01120C9C7F80020C9C12
:0E0C810081838587898B8D80828486888A8C0A
:090B17000716000012010102138F
:100ABC00C29200C29000D29200E4FEEF139291EF2A
:100ACC00C313FFD29000C290000EBE08EEE4FEED00
:100ADC00139291EDC313FDD29000C290000EBE088C
:040AEC00EEC29200C4
:010AF00022E3
:100A2900C29200C29000D29200E4FDEF139291EFBE
:100A3900C313FFD29000C290000DBD08EE00E4FD83
:100A4900A291E433FFC43333335480FCEEC3134C17
:100A5900FED29000C290000DBD08E5C29200D2906E
:090A690000C29100D29100AF0619
:010A72002261
:100B21007F81120A29EF30E723E4FD7F8E120ABC90
:100B3100E4FCEC900C8893FF74162CF8E6FD120A85
:0C0B4100BC0CBC07ED7D807F8E120ABC4E
:010B4D002285
:10000300E4FBEB900C8193FF120A2974162BF8A6DC
:05001300070BBB07ED27
:0100180022C5
:100C7000C2B7E4FF0FBFC8FCD2B7E4FF0FBF64FCEC
:010C80002251
:050B4E00120C707FCCC9
:100B5300E4FEC2B700EF30E004D2B78002C2B7E4CC
:100B6300FD0DBD1EFCD2B70000EFC313FF0EBE0880
:010B7300E1A0
:010B7400225E
:100C0200E4FFFEEFC313FFC2B700D2B7000030B754
:0E0C120003430780E4FD0DBD14FC0EBE08E593
:010C200022B1
:080CBF00120B4E7F44020B539F
:100BC100AC07120B4E7F4E120B53E4FF120B53E492
:100BD100FF120B53AF04120B53120B4E7F48020B43
:010BE10053C0
:100C3F00120B4E7FBE120B53120C02AC07120C029A
:0C0C4F00EFFFAD04EDCF8FF01206E5D3EF
:010C5B002276
:1007A200020704E493A3F8E493A34003F68001F262
:1007B20008DFF48029E493A3F85407240CC8C33358
:1007C200C4540F4420C8834004F456800146F6DF27
:1007D200E4800B0102040810204080900AF1E47EBC
:1007E200019360BCA3FF543F30E509541FFEE4931C
:1007F200A360010ECF54C025E060A840B8E493A3E3
:10080200FAE493A3F8E493A3C8C582C8CAC583CA0D
:10081200F0A3C8C582C8CAC583CADFE9DEE780BEC5
:010B200000D4
:10064800EF8DF0A4A8F0CF8CF0A428CE8DF0A42EC6
:02065800FE2280
:10065A00BC000BBE0029EF8DF084FFADF022E4CC84
:10066A00F875F008EF2FFFEE33FEEC33FCEE9DEC4D
:10067A00984005FCEE9DFE0FD5F0E9E4CEFD22ED93
:10068A00F8F5F0EE8420D21CFEADF075F008EF2FDD
:10069A00FFED33FD4007985006D5F0F222C398FDCE
:0506AA000FD5F0EA226B
:1006AF00C2D5EC30E709B2D5E4C39DFDE49CFCEE66
:1006BF0030E715B2D5E4C39FFFE49EFE12065AC37E
:1006CF00E49DFDE49CFC800312065A30D507C3E479
:0606DF009FFFE49EFE22D5
:1006E500BB010A89828A83F0E5F0A3F0225006F760
:0F06F50009A7F01922BBFE06F3E5F009F319225D
:00000001FF
