:0300000002049E59
:0C049E00787FE4F6D8FD75812D0204E59E
:1007FC00323020202D20202D2020202020202020B1
:10080C000020203A20203A202020202020202020C8
:10081C00200020202053746F70205761746368206F
:10082C00202000202020203A20203A20202E20209A
:04083C002020200058
:100927000123000129FF02260000012800022B00F5
:1009370000012406012500012A0002210000012DE3
:0309470000C100EC
:100A420030B102C322120A9830B102C32230B1FD82
:020A5200D322AD
:100A540030B002C322120A9830B002C32230B0FD73
:020A6400D3229B
:100A660030B202C322120A9830B202C32230B2FD5B
:020A7600D32289
:100A780030B302C322120A9830B302C32230B3FD46
:020A8800D32277
:1009D8008E0F8F10851082850F83E49360170510A2
:1009E800E510AE0F7002050F14F5828E83E493FFB5
:0609F800120AB180DF22AB
:0C09AD00AB0FAA10A9111203B4FDAF1388
:1009B9008D15120AA5E51575F00A842430FF120A6F
:0F09C900B1E51575F00A84E5F02430FF020AB19C
:10063B008B0F8A1089118D12E51404FF120AA57F06
:10064B000F120AA5120A665028AB0FAA10A9111295
:10065B0003B4C39512500774011203CD8004E41246
:10066B0003EF1209ADE51404FF120AA57F0F120A5E
:10067B00A5120A785029AB0FAA10A9111203B4D3F3
:10068B009400400774FF1203CD8005E5121203EFAF
:10069B001209ADE51404FF120AA57F0F120AA51269
:0A06AB000A4250A07F0C120AA5229B
:1006B500120ABD120A241209547FC11207698F2438
:1006C500E524D3941740037524067FC31207698F69
:1006D50025E525D3943B4003E4F5257FC51207693D
:1006E5008F2AE52AD394014003E4F52A1200031268
:1006F50005B6E52365296006120840852329120001
:0C0705001912001A12071112026180E0A4
:10052A00EF14B4070040030205B590054275F003C5
:10053A00A4C58325F0C58373020557020560020529
:10054A006E02057C02058A0205980205A67F5312EF
:10055A000AB17F7580077F4D120AB17F6F120AB107
:10056A007F6E80447F54120AB17F75120AB17F658B
:10057A0080367F57120AB17F65120AB17F648028DC
:10058A007F54120AB17F68120AB17F75801A7F46BA
:10059A00120AB17F72120AB17F69800C7F53120A64
:0C05AA00B17F61120AB17F74120AB12205
:100840007F0C120AA5E52370177F80120AA57E0788
:100850007FFC1209D87FC0120AA57E087F0D801A7E
:10086000E523B402187F80120AA57E087F1E1209B4
:0E087000D87FC0120AA57E087F2F1209D82259
:10026100E5236003020365E51CC4540F75F00AA47D
:10027100FFE51C540F2FFD7F821209B9E51AC45402
:100281000F75F00AA4FFE51A540F2FFD7F8512099F
:10029100B9E519C4540F75F00AA4FFE519540F2FDD
:1002A100FD7F881209B97F8C120AA5E51B5407FF4F
:1002B10012052AE518C4540F75F00AA4FFE5185475
:1002C1000F2FFD7FC01209B9E517C4540F75F00A4D
:1002D100A4FFE517540F2FFD7FC31209B9E516C41A
:1002E100540F75F00AA4FFE516540F2FFD7FC612B7
:1002F10009B97FC9120AA5852608852709C3E5081A
:100301006480948050127F2D120AB1C3E49509F5DF
:1003110009E49508F50880057F20120AB1AE08AFFF
:10032100097C007D64120468EF2430FF120AB1AE2B
:1003310008AF097C007D0A1204687C007D0A120462
:1003410068ED2430FF120AB17F2E120AB1AE08AF58
:10035100097C007D0A120468ED2430FF120AB17F86
:1003610043020AB1E52364027048AE21AF227C0E3C
:100371007D10120413AD077FC21209B9AE21AF225D
:100381007C0E7D101204137E007F3CCFCDCFCECCEE
:10039100CE120413AD077FC51209B9AE21AF227C7D
:1003A100007D3C1204137FC81209B9AD2D7FCB1219
:0203B10009B988
:0103B3002227
:10071100E5237018120A42500612001E7529FF12B5
:100721000A545043752302C200E4802CE52364027D
:100731007035120A665006B200A200928E120A7833
:10074100500A200007E4F521F522F52D120A545034
:1007510016E4F523C28EC200F521F522F52D12080B
:080761004085232912026122E8
:10001E00E51CC4540F75F00AA4FFE51C540F2FF510
:10002E0008E51AC4540F75F00AA4FFE51A540F2FF1
:10003E00F509E519C4540F75F00AA4FFE519540F1C
:10004E002FF50AE51B5407F50BE518C4540F75F090
:10005E000AA4FFE518540F2FF50CE517C4540F75BD
:10006E00F00AA4FFE517540F2FF50DE516C4540F33
:10007E0075F00AA4FFE516540F2FF50E7F80120AB5
:10008E00A57E077FFC1209D87FC0120AA57E087FC5
:10009E000D1209D8AD087F821209B9AD097F8512FC
:1000AE0009B9AD0A7F881209B97F8C120AA5AF0B68
:1000BE0012052AAD0C7FC01209B9AD0D7FC312090E
:1000CE00B9AD0E7FC61209B97B007A007908751397
:1000DE00827514827D6312063B7B007A0079097566
:1000EE0013857514857D0C12063B7B007A00790A08
:1000FE007513887514887D1F12063B7B007A007974
:10010E000C7513C07514C07D1712063B7B007A0068
:10011E00790D7513C37514C37D3B12063B7B007AB4
:10012E0000790E7513C67514C67D3B12063B7F8E85
:10013E00120AA57F0F120AA5120A665022E50BC3FA
:10014E0094075004050B8003750B017F8C120AA5D2
:10015E00AF0B12052A7F8E120AA57F0F120AA51267
:10016E000A785021E50B94014004150B8003750BA2
:10017E00077F8C120AA5AF0B12052A7F8E120AA5D5
:10018E007F0F120AA5120A4250AEE50875F00A84D6
:10019E00C454F0FFE50875F00A84E5F04FF51CE550
:1001AE000975F00A84C454F0FFE50975F00A84E578
:1001BE00F04FF51AE50A75F00A84C454F0FFE50A0B
:1001CE0075F00A84E5F04FF519850B1BE50C75F0FB
:1001DE000A84C454F0FFE50C75F00A84E5F04FF57F
:1001EE0018E50D75F00A84C454F0FFE50D75F00A9C
:1001FE0084E5F04FF517E50E75F00A84C454F0FF50
:10020E00E50E75F00A84E5F04FF516E4FD7F8E12CB
:10021E0008F2AD167F801208F2AD177F821208F237
:10022E00AD187F841208F2AD197F861208F2AD1A4E
:10023E007F881208F2AD1B7F8A1208F2AD1C7F8CEC
:10024E001208F27D807F8E1208F27F0C120AA575BD
:02025E0029FF76
:01026000227B
:0B0ABD0053890F438910D2ABD2AF2247
:03001B000209FED9
:1009FE00C0E0C0D0758DD8758BF0300014052DE594
:100A0E002DC39464400B752D000522E5227002055E
:060A1E0021D0D0D0E0322F
:1005B600E4F509E52870161209817FCC1208BC7F84
:1005C600441208BC752801E4F52BF52C22E52864B5
:1005D600017061052CE52C7002052BC39428E52BD0
:1005E600940040501209817FCC1208BC7FBE1208CD
:1005F600BC12087E8F0812087EEFFEE508FFEE307B
:10060600E710EFF4FFEEF4FEEF2401FFE43EFE7583
:1006160009017C007D0A1204017D101204688E26F1
:100626008F27E509600BC3E49527F527E49526F5A2
:0406360026E4F52899
:01063A00229D
:0100190022C4
:01001A0022C3
:0C0A98007F017E267D82DDFEDEFADFF6A7
:010AA400222F
:1007B300C2A58B807F017E001207E3D2A77F017E53
:1007C300001207E3C2A77F017E001207E3EBC454C4
:1007D300F0F5807F017E001207E3D2A77F017E0040
:1007E300D3EF9400EE9400400F7DC77C01DCFEDD67
:0807F300FAEF1F70EB1E80E815
:0107FB0022DB
:0C0AA500AB07C2A7C2A61207B3C2A7226B
:0C0AB100AB07C2A7D2A61207B3C2A7224F
:100A24007F32120AA57F28120AA57F0C120AA57F1D
:0E0A340006120AA57F01120AA57F80020AA5FC
:0E0A8A0081838587898B8D80828486888A8C03
:09094A000716000012010102135E
:1008F200C2B500C2B600D2B500E4FEEF1392B4EF67
:10090200C313FFD2B600C2B6000EBE08EEE4FEED7F
:100912001392B4EDC313FDD2B600C2B6000EBE08E8
:04092200EEC2B5006C
:0109260022AE
:10076900C2B500C2B600D2B500E4FDEF1392B4EFF2
:10077900C313FFD2B600C2B6000DBD08EE00E4FDFA
:10078900A2B4E433FFC43333335480FCEEC3134CB7
:10079900FED2B600C2B6000DBD08E5C2B500D2B69C
:0907A90000C2B400D2B400AF0696
:0107B2002224
:100954007F81120769EF30E723E4FD7F8E1208F2EE
:10096400E4FCEC900A9193FF74162CF8E6FD12084F
:0C097400F20CBC07ED7D807F8E1208F2B3
:010980002254
:10000300E4FBEB900A8A93FF12076974162BF8A698
:05001300070BBB07ED27
:0100180022C5
:10098100C2B77F467E00EF1FAC0670011E4C70F6A9
:10099100D2B7E4FEFF30B7110FBF00010ED3EF94C1
:0B09A10088EE941340EF7F00227F01DE
:0109AC002228
:1008BC00E4FBFAC2B7050BE50B7002050AEF1392C5
:1008CC00B7750A00750B06E50B150BAC0A70021513
:1008DC000A4C70F3D2B7EFC313FF0BBB00010AEB4A
:0508EC0064084A70CE13
:0108F10022E4
:10087E007D087C00C2B70FBF0000D2B70FBF0000CB
:10088E000FBF0000A2B7E433C43333335480FBE907
:10089E00C3134BF97E007F04EF1FAA0670011E4A98
:0D08AE0070F6ED1D70011CED4C70C9AF011E
:0108BB00221A
:1004AA000206B5E493A3F8E493A34003F68001F2AD
:1004BA0008DFF48029E493A3F85407240CC8C33353
:1004CA00C4540F4420C8834004F456800146F6DF22
:1004DA00E4800B0102040810204080900927E47E82
:1004EA00019360BCA3FF543F30E509541FFEE49317
:1004FA00A360010ECF54C025E060A840B8E493A3DE
:10050A00FAE493A3F8E493A3C8C582C8CAC583CA08
:10051A00F0A3C8C582C8CAC583CADFE9DEE780BEC0
:0109530000A3
:1003B400BB010689828A83E0225002E722BBFE0247
:0903C400E32289828A83E493227A
:1003CD00BB010989828A83F8E028F022500327F7C0
:1003DD0022BBFE05F8E328F3228A838982F8E49391
:0203ED002822C4
:1003EF00BB010689828A83F0225002F722BBFE01ED
:0203FF00F322E7
:10040100EF8DF0A4A8F0CF8CF0A428CE8DF0A42E0F
:02041100FE22C9
:10041300BC000BBE0029EF8DF084FFADF022E4CCCD
:10042300F875F008EF2FFFEE33FEEC33FCEE9DEC96
:10043300984005FCEE9DFE0FD5F0E9E4CEFD22EDDC
:10044300F8F5F0EE8420D21CFEADF075F008EF2F26
:10045300FFED33FD4007985006D5F0F222C398FD17
:050463000FD5F0EA22B4
:10046800C2D5EC30E709B2D5E4C39DFDE49CFCEEAF
:1004780030E715B2D5E4C39FFFE49EFE120413C310
:10048800E49DFDE49CFC800312041330D507C3E40B
:060498009FFFE49EFE221E
:00000001FF
