:030000000202D425
:0C02D400787FE4F6D8FD75811702031B4B
:0705B6000211000001130017
:10012D0012061312054E1204ED7F3F12050E120634
:10013D000BE51070061205A002020320B126120570
:10014D00E620B10C050FE50FC394074003E4F50F4E
:10015D00E514C39432500A20B1071205E605148048
:10016D00EFE4F51430B0030202031205E620B0727D
:10017D007408250FF8067408250FF8E6540FD3946C
:10018D00094004740626F67408250FF8E6C394603A
:10019D004008E50F94025002E4F67408250FF8E6C6
:1001AD00C394244007E50FB40202E4F67408250F4A
:1001BD00F8E6C394324007E50FB40302E4F6740881
:1001CD00250FF8E6C394134007E50FB40402E4F6D7
:1001DD007408250FF8E6C394074007E50FB4050230
:1001ED007601E514C39432500A20B0071205E605D6
:1001FD001480EFE4F5140513E513C394054006E4EC
:0B020D00F51312036012000602013E10
:100006007F801205F37F321205FF7F301205FFE570
:100016000EC4540F2430FF1205FFE50E540F243092
:10002600FF1205FF7F2D1205FFE50CC4540F243087
:10003600FF1205FFE50C540F2430FF1205FF7F2D3C
:100046001205FFE50BC4540F2430FF1205FFE50B24
:10005600540F2430FF1205FF7F8B1205F3E50D5474
:10006600072430FF1205FF7FC01205F3E50AC454CA
:100076000F2430FF1205FFE50A540F2430FF120546
:10008600FF7F3A1205FFE509C4540F2430FF12051D
:10009600FFE509540F2430FF1205FF7F3A1205FFD2
:1000A600E508C4540F2430FF1205FFE508540F2459
:1000B60030FF1205FF7FC91205F38511158512164B
:1000C600C3E5156480948050127F2D1205FFC3E4AA
:1000D6009516F516E49515F51580057F201205FF92
:1000E600AE15AF167C007D6412022AEF2430FF1293
:1000F60005FFAE15AF167C007D0A12022A7C007D34
:100106000A12022AED2430FF1205FF7F2E1205FF88
:10011600AE15AF167C007D0A12022AED2430FF12BE
:0701260005FF7F430205FF06
:10036000E4F517FB7A00791512056C503FE515305E
:10037000E714E516F4FFE515F4FEEF2401F516E4A5
:100380003EF515751701AE15AF167C007D0A1202F9
:10039000187D1012022A8E118F12E517600BC3E42C
:0C03A0009512F512E49511F51112060BF0
:0103AC00222E
:07061300D288D2A8D2AF2269
:030003000203AD48
:1003AD00C0E0C0F0C083C082C0D075D000C000C016
:1003BD0001C002C003C004C005C006C0071205E697
:1003CD0020B20EE510B401031205896310FF750FFD
:1003DD0000D007D006D005D004D003D002D001D074
:0C03ED0000D0D0D082D083D0F0D0E0321D
:0C05E6007F017E267D82DDFEDEFADFF65E
:0105F20022E6
:10044300C2A58B807F017E0012046CD2A77F057E3C
:100453000012046CC2A7EBC454F0F5807F017E0048
:0904630012046CD2A77F057E0093
:10046C00D3EF9400EE9400400F7DC77C01DCFEDDE1
:08047C00FAEF1F70EB1E80E88F
:010484002255
:0C05F300AB07C2A7C2A6120443C2A72295
:0C05FF00AB07C2A7D2A6120443C2A72279
:10054E007F321205F37F281205F37F0C1205F37F1D
:0E055E00061205F37F011205F37F800205F3FC
:0E05D80081838587898B8D80828486888A8CBA
:0905BD00070800001201010213FD
:0C048500EC9005DF93FF74082CF8E6FDF6
:10049100C29200C29000D29200E4FEEF139291EF5B
:1004A100C313FFD29000C290000EBE08EEE4FEED31
:1004B100139291EDC313FDD29000C290000EBE08BD
:0404C100EEC29200F5
:0104C5002214
:1003F900C29200C29000D29200E4FDEF139291EFF5
:10040900C313FFD29000C290000DBD08EE00E4FDB9
:10041900A291E433FFC43333335480FCEEC3134C4D
:10042900FED29000C290000DBD08E5C29200D290A4
:0904390000C29100D29100AF064F
:010442002297
:1004ED007F811203F9EF30E717E4FD7F8E1204913F
:1004FD00E4FC1204850CBC07F97D807F8E120491FB
:01050D0022CB
:10058900E4FD7F8E120491E4FC1204850CBC07F98A
:070599007D807F8E020491BA
:1005A000E4FBEB9005D893FF1203F974082BF8A62F
:0505B000070BBB07ED85
:0105B5002223
:1005C700C2B7E4FF0FBFC8FCD2B7E4FF0FBF64FC9C
:0105D7002201
:0504C6001205C77FCC08
:1004CB00E4FEC2B700EF30E004D2B78002C2B7E45B
:1004DB00FD0DBD1EFCD2B70000EFC313FF0EBE080F
:0104EB00E12F
:0104EC0022ED
:10052F00E4FFFEEFC313FFC2B700D2B7000030B72E
:0E053F0003430780E4FD0DBD14FC0EBE08E56D
:01054D00228B
:08060B001204C67F440204CB77
:10050E00AC071204C67F4E1204CBE4FF1204CBE4F8
:10051E00FF1204CBAF041204CB1204C67F480204B0
:01052E00CB01
:10056C001204C67FBE1204CB12052FAC0712052F46
:0C057C00EFFFAD04EDCF8FF0120260D352
:010588002250
:1002E00002012DE493A3F8E493A34003F68001F206
:1002F00008DFF48029E493A3F85407240CC8C3331F
:10030000C4540F4420C8834004F456800146F6DFED
:10031000E4800B01020408102040809005B6E47EC2
:10032000019360BCA3FF543F30E509541FFEE493E2
:10033000A360010ECF54C025E060A840B8E493A3A9
:10034000FAE493A3F8E493A3C8C582C8CAC583CAD4
:10035000F0A3C8C582C8CAC583CADFE9DEE780BE8C
:0105C6000034
:10021800EF8DF0A4A8F0CF8CF0A428CE8DF0A42EFA
:02022800FE22B4
:10022A00C2D5EC30E709B2D5E4C39DFDE49CFCEEEF
:10023A0030E715B2D5E4C39FFFE49EFE12027FC3E6
:10024A00E49DFDE49CFC800312027F30D507C3E4E1
:06025A009FFFE49EFE225E
:10026000BB010A89828A83F0E5F0A3F0225006F7E9
:0F02700009A7F01922BBFE06F3E5F009F31922E6
:10027F00BC000BBE0029EF8DF084FFADF022E4CC63
:10028F00F875F008EF2FFFEE33FEEC33FCEE9DEC2C
:10029F00984005FCEE9DFE0FD5F0E9E4CEFD22ED72
:1002AF00F8F5F0EE8420D21CFEADF075F008EF2FBC
:1002BF00FFED33FD4007985006D5F0F222C398FDAD
:0502CF000FD5F0EA224A
:00000001FF
